:100000000C9434000C945D000C9451000C9451003D
:100010000C9451000C9451000C9451000C9451001C
:100020000C9451000C9453000C9451000C9451000A
:100030000C9451000C9451000C9451000C945100FC
:100040000C9451000C9451000C9451000C945100EC
:100050000C9451000C9451000C9451000C945100DC
:100060000C9451000C94510011241FBECFEFD8E026
:10007000DEBFCDBF11E0A0E0B1E0E2E5F4E002C0F8
:1000800005900D92A830B107D9F721E0A8E0B1E0C2
:1000900001C01D92A930B207E1F70E949D000C94A7
:1000A00027020C9400001F920F920FB60F9211249A
:1000B0000F900FBE0F901F9018951F920F920FB6C2
:1000C0000F9211248F9381E0809308018F910F90FC
:1000D0000FBE0F901F90189580E480937C00EAE794
:1000E000F0E083E080838081806880838081806409
:1000F0008083808186FDFDCF80917800909179008A
:1001000008950E946C0087B1866087B952985A9A08
:1001100085B78C7F85BFE0EBF0E0808184608083D1
:10012000808181608083E0E7F0E08081816080836E
:1001300083B7817F826083BF08950E94810083B767
:10014000816083BF419A209100013091010140916B
:1001500002015091030160910401709105018091A9
:10016000060190910701A0E00E941B0209F43AC029
:10017000F8942091000130910101409102015091C9
:100180000301609104017091050180910601909135
:100190000701AFEF0E940F0220930001309301018D
:1001A0004093020150930301609304017093050191
:1001B000809306019093070178948895209100011F
:1001C00030910101409102015091030160910401BD
:1001D000709105018091060190910701A0E00E94B5
:1001E0001B0231F6E0E14198F89410920001109260
:1001F0000101E09302011092030110920401109298
:1002000005011092060110920701789420910001D7
:10021000309101014091020150910301609104016C
:100220007091050180910601909107012F3F3240A6
:1002300041055105610571058105910509F008F435
:1002400041C08895F89420910001309101014091BE
:1002500002015091030160910401709105018091A8
:10026000060190910701AFEF0E940F022093000159
:100270003093010140930201509303016093040104
:100280007093050180930601909307017894209163
:1002900000013091010140910201509103016091F0
:1002A00004017091050180910601909107012F3F93
:1002B000324041055105610571058105910511F037
:1002C00008F0BFCF2091000130910101409102015F
:1002D0005091030160910401709105018091060124
:1002E000909107012F3F314041055105610571058E
:1002F0008105910509F008F441C08895F894209192
:10030000000130910101409102015091030160917F
:100310000401709105018091060190910701AFEFF2
:100320000E940F02209300013093010140930201CB
:1003300050930301609304017093050180930601BB
:100340009093070178942091000130910101409130
:1003500002015091030160910401709105018091A7
:100360000601909107012F3F31404105510561057C
:1003700071058105910511F008F0BFCF419A2091D8
:1003800000013091010140910201509103016091FF
:100390000401709105018091060190910701A0E090
:1003A0000E941B0209F41FCF8895F8942091000148
:1003B00030910101409102015091030160910401CB
:1003C000709105018091060190910701AFEF0E94A5
:1003D0000F022093000130930101409302015093DA
:1003E00003016093040170930501809306019093CB
:1003F00007017894209100013091010140910201A0
:1004000050910301609104017091050180910601F2
:1004100090910701A0E00E941B0231F6E4CE002477
:10042000A7FD00942A0F301D401D501D601D701D3A
:10043000801D901D08950024A7FD00942A17300503
:100440004005500560057005800590050895F894F5
:02045000FFCFDC
:0804520000040000000000009E
:00000001FF
